{
  "_format": "hh-sol-artifact-1",
  "contractName": "BuyMeACoffee",
  "sourceName": "contracts/BuyMeACoffee.sol",
  "abi": [
    {
      "inputs": [],
      "stateMutability": "nonpayable",
      "type": "constructor"
    },
    {
      "anonymous": false,
      "inputs": [
        {
          "indexed": true,
          "internalType": "address",
          "name": "buyer",
          "type": "address"
        },
        {
          "indexed": false,
          "internalType": "uint256",
          "name": "timestamp",
          "type": "uint256"
        },
        {
          "indexed": false,
          "internalType": "string",
          "name": "message",
          "type": "string"
        }
      ],
      "name": "CoffeeBought",
      "type": "event"
    },
    {
      "inputs": [
        {
          "internalType": "string",
          "name": "_message",
          "type": "string"
        }
      ],
      "name": "buy",
      "outputs": [
        {
          "internalType": "bool",
          "name": "",
          "type": "bool"
        }
      ],
      "stateMutability": "payable",
      "type": "function"
    },
    {
      "inputs": [],
      "name": "getBalance",
      "outputs": [
        {
          "internalType": "uint256",
          "name": "",
          "type": "uint256"
        }
      ],
      "stateMutability": "view",
      "type": "function"
    },
    {
      "inputs": [],
      "name": "getBuyers",
      "outputs": [
        {
          "components": [
            {
              "internalType": "address",
              "name": "buyer",
              "type": "address"
            },
            {
              "internalType": "string",
              "name": "message",
              "type": "string"
            },
            {
              "internalType": "uint256",
              "name": "timestamp",
              "type": "uint256"
            }
          ],
          "internalType": "struct BuyMeACoffee.Buyer[]",
          "name": "",
          "type": "tuple[]"
        }
      ],
      "stateMutability": "view",
      "type": "function"
    },
    {
      "inputs": [],
      "name": "getCoffeesBought",
      "outputs": [
        {
          "internalType": "uint256",
          "name": "",
          "type": "uint256"
        }
      ],
      "stateMutability": "view",
      "type": "function"
    }
  ],
  "bytecode": "0x608060405234801561001057600080fd5b5033600160006101000a81548173ffffffffffffffffffffffffffffffffffffffff021916908373ffffffffffffffffffffffffffffffffffffffff160217905550610cf4806100616000396000f3fe60806040526004361061003f5760003560e01c806312065fe014610044578063492cc7691461006f578063c2fdcb101461009f578063f64bfaba146100ca575b600080fd5b34801561005057600080fd5b506100596100f5565b60405161006691906109fc565b60405180910390f35b610089600480360381019061008491906106f8565b6101a4565b6040516100969190610971565b60405180910390f35b3480156100ab57600080fd5b506100b46103ce565b6040516100c191906109fc565b60405180910390f35b3480156100d657600080fd5b506100df6103d7565b6040516100ec919061094f565b60405180910390f35b6000600160009054906101000a900473ffffffffffffffffffffffffffffffffffffffff1673ffffffffffffffffffffffffffffffffffffffff163373ffffffffffffffffffffffffffffffffffffffff1614610187576040517f08c379a000000000000000000000000000000000000000000000000000000000815260040161017e906109dc565b60405180910390fd5b3373ffffffffffffffffffffffffffffffffffffffff1631905090565b60008034116101e8576040517f08c379a00000000000000000000000000000000000000000000000000000000081526004016101df906109bc565b60405180910390fd5b600160009054906101000a900473ffffffffffffffffffffffffffffffffffffffff1673ffffffffffffffffffffffffffffffffffffffff166108fc349081150290604051600060405180830381858888f19350505050158015610250573d6000803e3d6000fd5b5060016000808282546102639190610b0e565b92505081905550600260405180606001604052803373ffffffffffffffffffffffffffffffffffffffff16815260200184815260200142815250908060018154018082558091505060019003906000526020600020906003020160009091909190915060008201518160000160006101000a81548173ffffffffffffffffffffffffffffffffffffffff021916908373ffffffffffffffffffffffffffffffffffffffff16021790555060208201518160010190805190602001906103299291906105ed565b506040820151816002015550503373ffffffffffffffffffffffffffffffffffffffff167fc01d6af9c6f6c755748eed7d22ab6b5fac68bc7e4193ef6a66f8e564482d6a7d428460405161037e929190610a17565b60405180910390a26103c56040518060400160405280601d81526020017f257320426f7567687420796f75206120637570206f6620636f6666656500000081525033610528565b60019050919050565b60008054905090565b60606002805480602002602001604051908101604052809291908181526020016000905b8282101561051f57838290600052602060002090600302016040518060600160405290816000820160009054906101000a900473ffffffffffffffffffffffffffffffffffffffff1673ffffffffffffffffffffffffffffffffffffffff1673ffffffffffffffffffffffffffffffffffffffff16815260200160018201805461048490610bee565b80601f01602080910402602001604051908101604052809291908181526020018280546104b090610bee565b80156104fd5780601f106104d2576101008083540402835291602001916104fd565b820191906000526020600020905b8154815290600101906020018083116104e057829003601f168201915b50505050508152602001600282015481525050815260200190600101906103fb565b50505050905090565b6105c0828260405160240161053e92919061098c565b6040516020818303038152906040527f319af333000000000000000000000000000000000000000000000000000000007bffffffffffffffffffffffffffffffffffffffffffffffffffffffff19166020820180517bffffffffffffffffffffffffffffffffffffffffffffffffffffffff83818316178352505050506105c4565b5050565b60008151905060006a636f6e736f6c652e6c6f679050602083016000808483855afa5050505050565b8280546105f990610bee565b90600052602060002090601f01602090048101928261061b5760008555610662565b82601f1061063457805160ff1916838001178555610662565b82800160010185558215610662579182015b82811115610661578251825591602001919060010190610646565b5b50905061066f9190610673565b5090565b5b8082111561068c576000816000905550600101610674565b5090565b60006106a361069e84610a78565b610a47565b9050828152602081018484840111156106bb57600080fd5b6106c6848285610bac565b509392505050565b600082601f8301126106df57600080fd5b81356106ef848260208601610690565b91505092915050565b60006020828403121561070a57600080fd5b600082013567ffffffffffffffff81111561072457600080fd5b610730848285016106ce565b91505092915050565b600061074583836108e1565b905092915050565b61075681610b64565b82525050565b61076581610b64565b82525050565b600061077682610ab8565b6107808185610adb565b93508360208202850161079285610aa8565b8060005b858110156107ce57848403895281516107af8582610739565b94506107ba83610ace565b925060208a01995050600181019050610796565b50829750879550505050505092915050565b6107e981610b76565b82525050565b60006107fa82610ac3565b6108048185610aec565b9350610814818560208601610bbb565b61081d81610cad565b840191505092915050565b600061083382610ac3565b61083d8185610afd565b935061084d818560208601610bbb565b61085681610cad565b840191505092915050565b600061086e601f83610afd565b91507f416d6f756e742073686f756c642062652067726561746572207468616e2030006000830152602082019050919050565b60006108ae601e83610afd565b91507f4f6e6c79206f776e65722063616e20726571756573742062616c616e636500006000830152602082019050919050565b60006060830160008301516108f9600086018261074d565b506020830151848203602086015261091182826107ef565b91505060408301516109266040860182610931565b508091505092915050565b61093a81610ba2565b82525050565b61094981610ba2565b82525050565b60006020820190508181036000830152610969818461076b565b905092915050565b600060208201905061098660008301846107e0565b92915050565b600060408201905081810360008301526109a68185610828565b90506109b5602083018461075c565b9392505050565b600060208201905081810360008301526109d581610861565b9050919050565b600060208201905081810360008301526109f5816108a1565b9050919050565b6000602082019050610a116000830184610940565b92915050565b6000604082019050610a2c6000830185610940565b8181036020830152610a3e8184610828565b90509392505050565b6000604051905081810181811067ffffffffffffffff82111715610a6e57610a6d610c7e565b5b8060405250919050565b600067ffffffffffffffff821115610a9357610a92610c7e565b5b601f19601f8301169050602081019050919050565b6000819050602082019050919050565b600081519050919050565b600081519050919050565b6000602082019050919050565b600082825260208201905092915050565b600082825260208201905092915050565b600082825260208201905092915050565b6000610b1982610ba2565b9150610b2483610ba2565b9250827fffffffffffffffffffffffffffffffffffffffffffffffffffffffffffffffff03821115610b5957610b58610c20565b5b828201905092915050565b6000610b6f82610b82565b9050919050565b60008115159050919050565b600073ffffffffffffffffffffffffffffffffffffffff82169050919050565b6000819050919050565b82818337600083830152505050565b60005b83811015610bd9578082015181840152602081019050610bbe565b83811115610be8576000848401525b50505050565b60006002820490506001821680610c0657607f821691505b60208210811415610c1a57610c19610c4f565b5b50919050565b7f4e487b7100000000000000000000000000000000000000000000000000000000600052601160045260246000fd5b7f4e487b7100000000000000000000000000000000000000000000000000000000600052602260045260246000fd5b7f4e487b7100000000000000000000000000000000000000000000000000000000600052604160045260246000fd5b6000601f19601f830116905091905056fea2646970667358221220cebe69b83f37d6148d18ca3eefc274a5e05435d9baf32364e451c05b3be2954164736f6c63430008000033",
  "linkReferences": {},
  "deployedLinkReferences": {}
}